{
  "abi": [
    {
      "anonymous": false,
      "inputs": [
        {
          "indexed": true,
          "internalType": "address",
          "name": "owner",
          "type": "address"
        },
        {
          "indexed": true,
          "internalType": "address",
          "name": "spender",
          "type": "address"
        },
        {
          "indexed": false,
          "internalType": "uint256",
          "name": "value",
          "type": "uint256"
        }
      ],
      "name": "Approval",
      "type": "event"
    },
    {
      "anonymous": false,
      "inputs": [
        {
          "indexed": true,
          "internalType": "address",
          "name": "authorizer",
          "type": "address"
        },
        {
          "indexed": true,
          "internalType": "bytes32",
          "name": "nonce",
          "type": "bytes32"
        }
      ],
      "name": "AuthorizationCanceled",
      "type": "event"
    },
    {
      "anonymous": false,
      "inputs": [
        {
          "indexed": true,
          "internalType": "address",
          "name": "authorizer",
          "type": "address"
        },
        {
          "indexed": true,
          "internalType": "bytes32",
          "name": "nonce",
          "type": "bytes32"
        }
      ],
      "name": "AuthorizationUsed",
      "type": "event"
    },
    {
      "anonymous": false,
      "inputs": [
        {
          "indexed": true,
          "internalType": "address",
          "name": "_account",
          "type": "address"
        }
      ],
      "name": "Blacklisted",
      "type": "event"
    },
    {
      "anonymous": false,
      "inputs": [
        {
          "indexed": true,
          "internalType": "address",
          "name": "newBlacklister",
          "type": "address"
        }
      ],
      "name": "BlacklisterChanged",
      "type": "event"
    },
    {
      "anonymous": false,
      "inputs": [
        {
          "indexed": true,
          "internalType": "address",
          "name": "burner",
          "type": "address"
        },
        {
          "indexed": false,
          "internalType": "uint256",
          "name": "amount",
          "type": "uint256"
        }
      ],
      "name": "Burn",
      "type": "event"
    },
    {
      "anonymous": false,
      "inputs": [
        {
          "indexed": true,
          "internalType": "address",
          "name": "newMasterMinter",
          "type": "address"
        }
      ],
      "name": "MasterMinterChanged",
      "type": "event"
    },
    {
      "anonymous": false,
      "inputs": [
        {
          "indexed": true,
          "internalType": "address",
          "name": "minter",
          "type": "address"
        },
        {
          "indexed": true,
          "internalType": "address",
          "name": "to",
          "type": "address"
        },
        {
          "indexed": false,
          "internalType": "uint256",
          "name": "amount",
          "type": "uint256"
        }
      ],
      "name": "Mint",
      "type": "event"
    },
    {
      "anonymous": false,
      "inputs": [
        {
          "indexed": true,
          "internalType": "address",
          "name": "minter",
          "type": "address"
        },
        {
          "indexed": false,
          "internalType": "uint256",
          "name": "minterAllowedAmount",
          "type": "uint256"
        }
      ],
      "name": "MinterConfigured",
      "type": "event"
    },
    {
      "anonymous": false,
      "inputs": [
        {
          "indexed": true,
          "internalType": "address",
          "name": "oldMinter",
          "type": "address"
        }
      ],
      "name": "MinterRemoved",
      "type": "event"
    },
    {
      "anonymous": false,
      "inputs": [
        {
          "indexed": false,
          "internalType": "address",
          "name": "previousOwner",
          "type": "address"
        },
        {
          "indexed": false,
          "internalType": "address",
          "name": "newOwner",
          "type": "address"
        }
      ],
      "name": "OwnershipTransferred",
      "type": "event"
    },
    {
      "anonymous": false,
      "inputs": [],
      "name": "Pause",
      "type": "event"
    },
    {
      "anonymous": false,
      "inputs": [
        {
          "indexed": true,
          "internalType": "address",
          "name": "newAddress",
          "type": "address"
        }
      ],
      "name": "PauserChanged",
      "type": "event"
    },
    {
      "anonymous": false,
      "inputs": [
        {
          "indexed": true,
          "internalType": "address",
          "name": "newRescuer",
          "type": "address"
        }
      ],
      "name": "RescuerChanged",
      "type": "event"
    },
    {
      "anonymous": false,
      "inputs": [
        {
          "indexed": true,
          "internalType": "address",
          "name": "from",
          "type": "address"
        },
        {
          "indexed": true,
          "internalType": "address",
          "name": "to",
          "type": "address"
        },
        {
          "indexed": false,
          "internalType": "uint256",
          "name": "value",
          "type": "uint256"
        }
      ],
      "name": "Transfer",
      "type": "event"
    },
    {
      "anonymous": false,
      "inputs": [
        {
          "indexed": true,
          "internalType": "address",
          "name": "_account",
          "type": "address"
        }
      ],
      "name": "UnBlacklisted",
      "type": "event"
    },
    {
      "anonymous": false,
      "inputs": [],
      "name": "Unpause",
      "type": "event"
    },
    {
      "inputs": [],
      "name": "CANCEL_AUTHORIZATION_TYPEHASH",
      "outputs": [
        {
          "internalType": "bytes32",
          "name": "",
          "type": "bytes32"
        }
      ],
      "stateMutability": "view",
      "type": "function"
    },
    {
      "inputs": [],
      "name": "DOMAIN_SEPARATOR",
      "outputs": [
        {
          "internalType": "bytes32",
          "name": "",
          "type": "bytes32"
        }
      ],
      "stateMutability": "view",
      "type": "function"
    },
    {
      "inputs": [],
      "name": "PERMIT_TYPEHASH",
      "outputs": [
        {
          "internalType": "bytes32",
          "name": "",
          "type": "bytes32"
        }
      ],
      "stateMutability": "view",
      "type": "function"
    },
    {
      "inputs": [],
      "name": "RECEIVE_WITH_AUTHORIZATION_TYPEHASH",
      "outputs": [
        {
          "internalType": "bytes32",
          "name": "",
          "type": "bytes32"
        }
      ],
      "stateMutability": "view",
      "type": "function"
    },
    {
      "inputs": [],
      "name": "TRANSFER_WITH_AUTHORIZATION_TYPEHASH",
      "outputs": [
        {
          "internalType": "bytes32",
          "name": "",
          "type": "bytes32"
        }
      ],
      "stateMutability": "view",
      "type": "function"
    },
    {
      "inputs": [
        {
          "internalType": "address",
          "name": "user",
          "type": "address"
        }
      ],
      "name": "addWhiteList",
      "outputs": [],
      "stateMutability": "nonpayable",
      "type": "function"
    },
    {
      "inputs": [
        {
          "internalType": "address",
          "name": "owner",
          "type": "address"
        },
        {
          "internalType": "address",
          "name": "spender",
          "type": "address"
        }
      ],
      "name": "allowance",
      "outputs": [
        {
          "internalType": "uint256",
          "name": "",
          "type": "uint256"
        }
      ],
      "stateMutability": "view",
      "type": "function"
    },
    {
      "inputs": [
        {
          "internalType": "address",
          "name": "spender",
          "type": "address"
        },
        {
          "internalType": "uint256",
          "name": "value",
          "type": "uint256"
        }
      ],
      "name": "approve",
      "outputs": [
        {
          "internalType": "bool",
          "name": "",
          "type": "bool"
        }
      ],
      "stateMutability": "nonpayable",
      "type": "function"
    },
    {
      "inputs": [
        {
          "internalType": "address",
          "name": "authorizer",
          "type": "address"
        },
        {
          "internalType": "bytes32",
          "name": "nonce",
          "type": "bytes32"
        }
      ],
      "name": "authorizationState",
      "outputs": [
        {
          "internalType": "bool",
          "name": "",
          "type": "bool"
        }
      ],
      "stateMutability": "view",
      "type": "function"
    },
    {
      "inputs": [
        {
          "internalType": "address",
          "name": "account",
          "type": "address"
        }
      ],
      "name": "balanceOf",
      "outputs": [
        {
          "internalType": "uint256",
          "name": "",
          "type": "uint256"
        }
      ],
      "stateMutability": "view",
      "type": "function"
    },
    {
      "inputs": [
        {
          "internalType": "address",
          "name": "_account",
          "type": "address"
        }
      ],
      "name": "blacklist",
      "outputs": [],
      "stateMutability": "nonpayable",
      "type": "function"
    },
    {
      "inputs": [],
      "name": "blacklister",
      "outputs": [
        {
          "internalType": "address",
          "name": "",
          "type": "address"
        }
      ],
      "stateMutability": "view",
      "type": "function"
    },
    {
      "inputs": [
        {
          "internalType": "uint256",
          "name": "_amount",
          "type": "uint256"
        }
      ],
      "name": "burn",
      "outputs": [],
      "stateMutability": "nonpayable",
      "type": "function"
    },
    {
      "inputs": [
        {
          "internalType": "address",
          "name": "authorizer",
          "type": "address"
        },
        {
          "internalType": "bytes32",
          "name": "nonce",
          "type": "bytes32"
        },
        {
          "internalType": "uint8",
          "name": "v",
          "type": "uint8"
        },
        {
          "internalType": "bytes32",
          "name": "r",
          "type": "bytes32"
        },
        {
          "internalType": "bytes32",
          "name": "s",
          "type": "bytes32"
        }
      ],
      "name": "cancelAuthorization",
      "outputs": [],
      "stateMutability": "nonpayable",
      "type": "function"
    },
    {
      "inputs": [
        {
          "internalType": "address",
          "name": "minter",
          "type": "address"
        },
        {
          "internalType": "uint256",
          "name": "minterAllowedAmount",
          "type": "uint256"
        }
      ],
      "name": "configureMinter",
      "outputs": [
        {
          "internalType": "bool",
          "name": "",
          "type": "bool"
        }
      ],
      "stateMutability": "nonpayable",
      "type": "function"
    },
    {
      "inputs": [],
      "name": "currency",
      "outputs": [
        {
          "internalType": "string",
          "name": "",
          "type": "string"
        }
      ],
      "stateMutability": "view",
      "type": "function"
    },
    {
      "inputs": [],
      "name": "decimals",
      "outputs": [
        {
          "internalType": "uint8",
          "name": "",
          "type": "uint8"
        }
      ],
      "stateMutability": "view",
      "type": "function"
    },
    {
      "inputs": [
        {
          "internalType": "address",
          "name": "spender",
          "type": "address"
        },
        {
          "internalType": "uint256",
          "name": "decrement",
          "type": "uint256"
        }
      ],
      "name": "decreaseAllowance",
      "outputs": [
        {
          "internalType": "bool",
          "name": "",
          "type": "bool"
        }
      ],
      "stateMutability": "nonpayable",
      "type": "function"
    },
    {
      "inputs": [
        {
          "internalType": "address",
          "name": "spender",
          "type": "address"
        },
        {
          "internalType": "uint256",
          "name": "increment",
          "type": "uint256"
        }
      ],
      "name": "increaseAllowance",
      "outputs": [
        {
          "internalType": "bool",
          "name": "",
          "type": "bool"
        }
      ],
      "stateMutability": "nonpayable",
      "type": "function"
    },
    {
      "inputs": [
        {
          "internalType": "string",
          "name": "tokenName",
          "type": "string"
        },
        {
          "internalType": "string",
          "name": "tokenSymbol",
          "type": "string"
        },
        {
          "internalType": "string",
          "name": "tokenCurrency",
          "type": "string"
        },
        {
          "internalType": "uint8",
          "name": "tokenDecimals",
          "type": "uint8"
        },
        {
          "internalType": "address",
          "name": "newMasterMinter",
          "type": "address"
        },
        {
          "internalType": "address",
          "name": "newPauser",
          "type": "address"
        },
        {
          "internalType": "address",
          "name": "newBlacklister",
          "type": "address"
        },
        {
          "internalType": "address",
          "name": "newOwner",
          "type": "address"
        }
      ],
      "name": "initialize",
      "outputs": [],
      "stateMutability": "nonpayable",
      "type": "function"
    },
    {
      "inputs": [
        {
          "internalType": "string",
          "name": "newName",
          "type": "string"
        }
      ],
      "name": "initializeV2",
      "outputs": [],
      "stateMutability": "nonpayable",
      "type": "function"
    },
    {
      "inputs": [
        {
          "internalType": "address",
          "name": "lostAndFound",
          "type": "address"
        }
      ],
      "name": "initializeV2_1",
      "outputs": [],
      "stateMutability": "nonpayable",
      "type": "function"
    },
    {
      "inputs": [],
      "name": "initializedV2",
      "outputs": [],
      "stateMutability": "nonpayable",
      "type": "function"
    },
    {
      "inputs": [],
      "name": "initializedv2",
      "outputs": [
        {
          "internalType": "bool",
          "name": "",
          "type": "bool"
        }
      ],
      "stateMutability": "view",
      "type": "function"
    },
    {
      "inputs": [
        {
          "internalType": "address",
          "name": "_account",
          "type": "address"
        }
      ],
      "name": "isBlacklisted",
      "outputs": [
        {
          "internalType": "bool",
          "name": "",
          "type": "bool"
        }
      ],
      "stateMutability": "view",
      "type": "function"
    },
    {
      "inputs": [
        {
          "internalType": "address",
          "name": "account",
          "type": "address"
        }
      ],
      "name": "isMinter",
      "outputs": [
        {
          "internalType": "bool",
          "name": "",
          "type": "bool"
        }
      ],
      "stateMutability": "view",
      "type": "function"
    },
    {
      "inputs": [
        {
          "internalType": "address",
          "name": "user",
          "type": "address"
        }
      ],
      "name": "isWhiteListed",
      "outputs": [
        {
          "internalType": "bool",
          "name": "",
          "type": "bool"
        }
      ],
      "stateMutability": "view",
      "type": "function"
    },
    {
      "inputs": [],
      "name": "masterMinter",
      "outputs": [
        {
          "internalType": "address",
          "name": "",
          "type": "address"
        }
      ],
      "stateMutability": "view",
      "type": "function"
    },
    {
      "inputs": [
        {
          "internalType": "address",
          "name": "_to",
          "type": "address"
        },
        {
          "internalType": "uint256",
          "name": "_amount",
          "type": "uint256"
        }
      ],
      "name": "mint",
      "outputs": [
        {
          "internalType": "bool",
          "name": "",
          "type": "bool"
        }
      ],
      "stateMutability": "nonpayable",
      "type": "function"
    },
    {
      "inputs": [
        {
          "internalType": "uint256",
          "name": "amount",
          "type": "uint256"
        }
      ],
      "name": "mint",
      "outputs": [],
      "stateMutability": "nonpayable",
      "type": "function"
    },
    {
      "inputs": [
        {
          "internalType": "address",
          "name": "minter",
          "type": "address"
        }
      ],
      "name": "minterAllowance",
      "outputs": [
        {
          "internalType": "uint256",
          "name": "",
          "type": "uint256"
        }
      ],
      "stateMutability": "view",
      "type": "function"
    },
    {
      "inputs": [],
      "name": "name",
      "outputs": [
        {
          "internalType": "string",
          "name": "",
          "type": "string"
        }
      ],
      "stateMutability": "view",
      "type": "function"
    },
    {
      "inputs": [
        {
          "internalType": "address",
          "name": "owner",
          "type": "address"
        }
      ],
      "name": "nonces",
      "outputs": [
        {
          "internalType": "uint256",
          "name": "",
          "type": "uint256"
        }
      ],
      "stateMutability": "view",
      "type": "function"
    },
    {
      "inputs": [],
      "name": "owner",
      "outputs": [
        {
          "internalType": "address",
          "name": "",
          "type": "address"
        }
      ],
      "stateMutability": "view",
      "type": "function"
    },
    {
      "inputs": [],
      "name": "pause",
      "outputs": [],
      "stateMutability": "nonpayable",
      "type": "function"
    },
    {
      "inputs": [],
      "name": "paused",
      "outputs": [
        {
          "internalType": "bool",
          "name": "",
          "type": "bool"
        }
      ],
      "stateMutability": "view",
      "type": "function"
    },
    {
      "inputs": [],
      "name": "pauser",
      "outputs": [
        {
          "internalType": "address",
          "name": "",
          "type": "address"
        }
      ],
      "stateMutability": "view",
      "type": "function"
    },
    {
      "inputs": [
        {
          "internalType": "address",
          "name": "owner",
          "type": "address"
        },
        {
          "internalType": "address",
          "name": "spender",
          "type": "address"
        },
        {
          "internalType": "uint256",
          "name": "value",
          "type": "uint256"
        },
        {
          "internalType": "uint256",
          "name": "deadline",
          "type": "uint256"
        },
        {
          "internalType": "uint8",
          "name": "v",
          "type": "uint8"
        },
        {
          "internalType": "bytes32",
          "name": "r",
          "type": "bytes32"
        },
        {
          "internalType": "bytes32",
          "name": "s",
          "type": "bytes32"
        }
      ],
      "name": "permit",
      "outputs": [],
      "stateMutability": "nonpayable",
      "type": "function"
    },
    {
      "inputs": [
        {
          "internalType": "address",
          "name": "from",
          "type": "address"
        },
        {
          "internalType": "address",
          "name": "to",
          "type": "address"
        },
        {
          "internalType": "uint256",
          "name": "value",
          "type": "uint256"
        },
        {
          "internalType": "uint256",
          "name": "validAfter",
          "type": "uint256"
        },
        {
          "internalType": "uint256",
          "name": "validBefore",
          "type": "uint256"
        },
        {
          "internalType": "bytes32",
          "name": "nonce",
          "type": "bytes32"
        },
        {
          "internalType": "uint8",
          "name": "v",
          "type": "uint8"
        },
        {
          "internalType": "bytes32",
          "name": "r",
          "type": "bytes32"
        },
        {
          "internalType": "bytes32",
          "name": "s",
          "type": "bytes32"
        }
      ],
      "name": "receiveWithAuthorization",
      "outputs": [],
      "stateMutability": "nonpayable",
      "type": "function"
    },
    {
      "inputs": [
        {
          "internalType": "address",
          "name": "minter",
          "type": "address"
        }
      ],
      "name": "removeMinter",
      "outputs": [
        {
          "internalType": "bool",
          "name": "",
          "type": "bool"
        }
      ],
      "stateMutability": "nonpayable",
      "type": "function"
    },
    {
      "inputs": [
        {
          "internalType": "contract IERC20",
          "name": "tokenContract",
          "type": "address"
        },
        {
          "internalType": "address",
          "name": "to",
          "type": "address"
        },
        {
          "internalType": "uint256",
          "name": "amount",
          "type": "uint256"
        }
      ],
      "name": "rescueERC20",
      "outputs": [],
      "stateMutability": "nonpayable",
      "type": "function"
    },
    {
      "inputs": [],
      "name": "rescuer",
      "outputs": [
        {
          "internalType": "address",
          "name": "",
          "type": "address"
        }
      ],
      "stateMutability": "view",
      "type": "function"
    },
    {
      "inputs": [],
      "name": "symbol",
      "outputs": [
        {
          "internalType": "string",
          "name": "",
          "type": "string"
        }
      ],
      "stateMutability": "view",
      "type": "function"
    },
    {
      "inputs": [],
      "name": "totalSupply",
      "outputs": [
        {
          "internalType": "uint256",
          "name": "",
          "type": "uint256"
        }
      ],
      "stateMutability": "view",
      "type": "function"
    },
    {
      "inputs": [
        {
          "internalType": "address",
          "name": "to",
          "type": "address"
        },
        {
          "internalType": "uint256",
          "name": "amount",
          "type": "uint256"
        }
      ],
      "name": "transfer",
      "outputs": [
        {
          "internalType": "bool",
          "name": "",
          "type": "bool"
        }
      ],
      "stateMutability": "nonpayable",
      "type": "function"
    },
    {
      "inputs": [
        {
          "internalType": "address",
          "name": "from",
          "type": "address"
        },
        {
          "internalType": "address",
          "name": "to",
          "type": "address"
        },
        {
          "internalType": "uint256",
          "name": "value",
          "type": "uint256"
        }
      ],
      "name": "transferFrom",
      "outputs": [
        {
          "internalType": "bool",
          "name": "",
          "type": "bool"
        }
      ],
      "stateMutability": "nonpayable",
      "type": "function"
    },
    {
      "inputs": [
        {
          "internalType": "address",
          "name": "newOwner",
          "type": "address"
        }
      ],
      "name": "transferOwnership",
      "outputs": [],
      "stateMutability": "nonpayable",
      "type": "function"
    },
    {
      "inputs": [
        {
          "internalType": "address",
          "name": "from",
          "type": "address"
        },
        {
          "internalType": "address",
          "name": "to",
          "type": "address"
        },
        {
          "internalType": "uint256",
          "name": "value",
          "type": "uint256"
        },
        {
          "internalType": "uint256",
          "name": "validAfter",
          "type": "uint256"
        },
        {
          "internalType": "uint256",
          "name": "validBefore",
          "type": "uint256"
        },
        {
          "internalType": "bytes32",
          "name": "nonce",
          "type": "bytes32"
        },
        {
          "internalType": "uint8",
          "name": "v",
          "type": "uint8"
        },
        {
          "internalType": "bytes32",
          "name": "r",
          "type": "bytes32"
        },
        {
          "internalType": "bytes32",
          "name": "s",
          "type": "bytes32"
        }
      ],
      "name": "transferWithAuthorization",
      "outputs": [],
      "stateMutability": "nonpayable",
      "type": "function"
    },
    {
      "inputs": [
        {
          "internalType": "address",
          "name": "_account",
          "type": "address"
        }
      ],
      "name": "unBlacklist",
      "outputs": [],
      "stateMutability": "nonpayable",
      "type": "function"
    },
    {
      "inputs": [],
      "name": "unpause",
      "outputs": [],
      "stateMutability": "nonpayable",
      "type": "function"
    },
    {
      "inputs": [
        {
          "internalType": "address",
          "name": "_newBlacklister",
          "type": "address"
        }
      ],
      "name": "updateBlacklister",
      "outputs": [],
      "stateMutability": "nonpayable",
      "type": "function"
    },
    {
      "inputs": [
        {
          "internalType": "address",
          "name": "_newMasterMinter",
          "type": "address"
        }
      ],
      "name": "updateMasterMinter",
      "outputs": [],
      "stateMutability": "nonpayable",
      "type": "function"
    },
    {
      "inputs": [
        {
          "internalType": "address",
          "name": "_newPauser",
          "type": "address"
        }
      ],
      "name": "updatePauser",
      "outputs": [],
      "stateMutability": "nonpayable",
      "type": "function"
    },
    {
      "inputs": [
        {
          "internalType": "address",
          "name": "newRescuer",
          "type": "address"
        }
      ],
      "name": "updateRescuer",
      "outputs": [],
      "stateMutability": "nonpayable",
      "type": "function"
    },
    {
      "inputs": [],
      "name": "version",
      "outputs": [
        {
          "internalType": "string",
          "name": "",
          "type": "string"
        }
      ],
      "stateMutability": "view",
      "type": "function"
    }
  ],
  "bytecode": {
    "object": "0x60806040526001805460ff60a01b191690556000600b5534801561002257600080fd5b50600080546001600160a01b03191633179055613a26806100446000396000f3fe608060405234801561001057600080fd5b506004361061035d5760003560e01c80637ecebe00116101d3578063b2118a8d11610104578063e5a6b10f116100a2578063ef55bec61161007c578063ef55bec61461083b578063f2fde38b1461084e578063f9f92be414610861578063fe575a871461087457600080fd5b8063e5a6b10f146107e7578063e7cd4a04146107ef578063e94a01021461080257600080fd5b8063d608ea64116100de578063d608ea6414610761578063d916948714610774578063dd62ed3e1461079b578063e3ee160e146107d457600080fd5b8063b2118a8d14610728578063bd1024301461073b578063d505accf1461074e57600080fd5b8063a0712d6811610171578063a9059cbb1161014b578063a9059cbb146106c3578063aa20e1e4146106d6578063aa271e1a146106e9578063ad38bf221461071557600080fd5b8063a0712d6814610676578063a0cc6a6814610689578063a457c2d7146106b057600080fd5b80638a6db9c3116101ad5780638a6db9c3146106215780638da5cb5b1461064a57806395d89b411461065b5780639fd0506d1461066357600080fd5b80637ecebe00146105c95780637f2eecc3146105f25780638456cb591461061957600080fd5b806335d99f35116102ad5780634e44d9561161024b5780635a049a70116102255780635a049a701461054d5780635c975abb146105605780636f9170f61461057457806370a08231146105a057600080fd5b80634e44d9561461050a57806354fd4d501461051d578063554bab3c1461053a57600080fd5b8063395093511161028757806339509351146104c95780633f4ba83a146104dc57806340c10f19146104e457806342966c68146104f757600080fd5b806335d99f35146104845780633644e515146104af57806338a63183146104b857600080fd5b80632ab600451161031a57806330adf81f116102f457806330adf81f1461041e578063313ce5671461044557806331d8f3a7146104645780633357162b1461047157600080fd5b80632ab60045146103e55780632fc81e09146103f85780633092afd51461040b57600080fd5b806306fdde0314610362578063095ea7b31461038057806318160ddd146103a357806318c20ecb146103b55780631a895266146103bf57806323b872dd146103d2575b600080fd5b61036a6108a0565b604051610377919061309d565b60405180910390f35b61039361038e3660046130f0565b61092e565b6040519015158152602001610377565b600b545b604051908152602001610377565b6103bd6109e5565b005b6103bd6103cd36600461311c565b610a3d565b6103936103e0366004613139565b610ab0565b6103bd6103f336600461311c565b610c72565b6103bd61040636600461311c565b610d4f565b61039361041936600461311c565b610daf565b6103a77f6e71edae12b1b97f4d1f60370fef10105fa2faae0126114a169c64845d6126c981565b6006546104529060ff1681565b60405160ff9091168152602001610377565b6014546103939060ff1681565b6103bd61047f36600461322e565b610e38565b600854610497906001600160a01b031681565b6040516001600160a01b039091168152602001610377565b6103a7600f5481565b600e546001600160a01b0316610497565b6103936104d73660046130f0565b6110a1565b6103bd611144565b6103936104f23660046130f0565b6111a6565b6103bd61050536600461330a565b61149c565b6103936105183660046130f0565b611699565b6040805180820190915260018152601960f91b602082015261036a565b6103bd61054836600461311c565b61175b565b6103bd61055b366004613323565b611836565b60015461039390600160a01b900460ff1681565b61039361058236600461311c565b6001600160a01b031660009081526013602052604090205460ff1690565b6103a76105ae36600461311c565b6001600160a01b031660009081526009602052604090205490565b6103a76105d736600461311c565b6001600160a01b031660009081526011602052604090205490565b6103a77fd099cc98ef71107a616c4f0f941f04c322d8e254fe26b3c6668db87aae413de881565b6103bd611874565b6103a761062f36600461311c565b6001600160a01b03166000908152600d602052604090205490565b6000546001600160a01b0316610497565b61036a6118dc565b600154610497906001600160a01b031681565b6103bd61068436600461330a565b6118e9565b6103a77f7c7c6cdb67a18743f49ec6fa9b35f50d52ed05cbed4cc592e13b44501c1a226781565b6103936106be3660046130f0565b61198c565b6103936106d13660046130f0565b611a2f565b6103bd6106e436600461311c565b611aab565b6103936106f736600461311c565b6001600160a01b03166000908152600c602052604090205460ff1690565b6103bd61072336600461311c565b611b45565b6103bd610736366004613139565b611c2a565b600254610497906001600160a01b031681565b6103bd61075c366004613373565b611ca9565b6103bd61076f3660046133e1565b611d63565b6103a77f158b0a9edf7a828aad02f63cd515c68ef2f50ba807396f6d12842833a159742981565b6103a76107a9366004613453565b6001600160a01b039182166000908152600a6020908152604080832093909416825291909152205490565b6103bd6107e236600461348c565b611e02565b61036a611ec0565b6103bd6107fd36600461311c565b611ecd565b6103936108103660046130f0565b6001600160a01b03919091166000908152601060209081526040808320938352929052205460ff1690565b6103bd61084936600461348c565b611f1b565b6103bd61085c36600461311c565b611fcc565b6103bd61086f36600461311c565b6120ae565b61039361088236600461311c565b6001600160a01b031660009081526003602052604090205460ff1690565b600480546108ad9061350e565b80601f01602080910402602001604051908101604052809291908181526020018280546108d99061350e565b80156109265780601f106108fb57610100808354040283529160200191610926565b820191906000526020600020905b81548152906001019060200180831161090957829003601f168201915b505050505081565b600154600090600160a01b900460ff16156109645760405162461bcd60e51b815260040161095b90613548565b60405180910390fd5b3360008181526003602052604090205460ff16156109945760405162461bcd60e51b815260040161095b90613572565b6001600160a01b038416600090815260036020526040902054849060ff16156109cf5760405162461bcd60e51b815260040161095b90613572565b6109da338686612124565b506001949350505050565b60145460ff1615610a2e5760405162461bcd60e51b8152602060048201526013602482015272185b1c9958591e481a5b9a5d1a585b1a5e9959606a1b604482015260640161095b565b6014805460ff19166001179055565b6002546001600160a01b03163314610a675760405162461bcd60e51b815260040161095b906135b7565b6001600160a01b038116600081815260036020526040808220805460ff19169055517f117e3210bb9aa7d9baff172026820255c6f6c30ba8999d1c2fd88e2848137c4e9190a250565b600154600090600160a01b900460ff1615610add5760405162461bcd60e51b815260040161095b90613548565b3360008181526003602052604090205460ff1615610b0d5760405162461bcd60e51b815260040161095b90613572565b6001600160a01b038516600090815260036020526040902054859060ff1615610b485760405162461bcd60e51b815260040161095b90613572565b6001600160a01b038516600090815260036020526040902054859060ff1615610b835760405162461bcd60e51b815260040161095b90613572565b6001600160a01b0387166000908152600a60209081526040808320338452909152902054851115610c075760405162461bcd60e51b815260206004820152602860248201527f45524332303a207472616e7366657220616d6f756e74206578636565647320616044820152676c6c6f77616e636560c01b606482015260840161095b565b610c12878787612240565b6001600160a01b0387166000908152600a60209081526040808320338452909152902054610c409086612423565b6001600160a01b0388166000908152600a60209081526040808320338452909152902055600193505050509392505050565b6000546001600160a01b03163314610c9c5760405162461bcd60e51b815260040161095b90613603565b6001600160a01b038116610d055760405162461bcd60e51b815260206004820152602a60248201527f526573637561626c653a206e6577207265736375657220697320746865207a65604482015269726f206164647265737360b01b606482015260840161095b565b600e80546001600160a01b0319166001600160a01b0383169081179091556040517fe475e580d85111348e40d8ca33cfdd74c30fe1655c2d8537a13abc10065ffa5a90600090a250565b60125460ff16600114610d6157600080fd5b306000908152600960205260409020548015610d8257610d82308383612240565b5050306000908152600360205260409020805460ff19908116600117909155601280549091166002179055565b6008546000906001600160a01b03163314610ddc5760405162461bcd60e51b815260040161095b90613638565b6001600160a01b0382166000818152600c60209081526040808320805460ff19169055600d909152808220829055517fe94479a9f7e1952cc78f2d6baab678adc1b772d936c6583def489e524cb666929190a25060015b919050565b600854600160a01b900460ff1615610ea55760405162461bcd60e51b815260206004820152602a60248201527f46696174546f6b656e3a20636f6e747261637420697320616c726561647920696044820152691b9a5d1a585b1a5e995960b21b606482015260840161095b565b6001600160a01b038416610ecb5760405162461bcd60e51b815260040161095b90613681565b6001600160a01b038316610f335760405162461bcd60e51b815260206004820152602960248201527f46696174546f6b656e3a206e65772070617573657220697320746865207a65726044820152686f206164647265737360b81b606482015260840161095b565b6001600160a01b038216610fa05760405162461bcd60e51b815260206004820152602e60248201527f46696174546f6b656e3a206e657720626c61636b6c697374657220697320746860448201526d65207a65726f206164647265737360901b606482015260840161095b565b6001600160a01b0381166110075760405162461bcd60e51b815260206004820152602860248201527f46696174546f6b656e3a206e6577206f776e657220697320746865207a65726f604482015267206164647265737360c01b606482015260840161095b565b6004611013898261371e565b506005611020888261371e565b50600761102d878261371e565b506006805460ff191660ff8716179055600880546001600160a01b03199081166001600160a01b0387811691909117909255600180548216868416179055600280549091169184169190911790556110848161246c565b50506008805460ff60a01b1916600160a01b179055505050505050565b600154600090600160a01b900460ff16156110ce5760405162461bcd60e51b815260040161095b90613548565b3360008181526003602052604090205460ff16156110fe5760405162461bcd60e51b815260040161095b90613572565b6001600160a01b038416600090815260036020526040902054849060ff16156111395760405162461bcd60e51b815260040161095b90613572565b6109da33868661248e565b6001546001600160a01b0316331461116e5760405162461bcd60e51b815260040161095b906137de565b6001805460ff60a01b191690556040517f7805862f689e2f13df9f062ff482ad3ad112aca9e0847911ed832e158c525b3390600090a1565b600154600090600160a01b900460ff16156111d35760405162461bcd60e51b815260040161095b90613548565b336000908152600c602052604090205460ff166112025760405162461bcd60e51b815260040161095b90613820565b3360008181526003602052604090205460ff16156112325760405162461bcd60e51b815260040161095b90613572565b6001600160a01b038416600090815260036020526040902054849060ff161561126d5760405162461bcd60e51b815260040161095b90613572565b6001600160a01b0385166112cf5760405162461bcd60e51b815260206004820152602360248201527f46696174546f6b656e3a206d696e7420746f20746865207a65726f206164647260448201526265737360e81b606482015260840161095b565b600084116113315760405162461bcd60e51b815260206004820152602960248201527f46696174546f6b656e3a206d696e7420616d6f756e74206e6f7420677265617460448201526806572207468616e20360bc1b606482015260840161095b565b336000908152600d6020526040902054808511156113a85760405162461bcd60e51b815260206004820152602e60248201527f46696174546f6b656e3a206d696e7420616d6f756e742065786365656473206d60448201526d696e746572416c6c6f77616e636560901b606482015260840161095b565b600b546113b590866124cc565b600b556001600160a01b0386166000908152600960205260409020546113db90866124cc565b6001600160a01b0387166000908152600960205260409020556113fe8186612423565b336000818152600d602090815260409182902093909355518781526001600160a01b038916927fab8530f87dc9b59234c4623bf917212bb2536d647574c8e7e5da92c2ede0c9f8910160405180910390a36040518581526001600160a01b038716906000907fddf252ad1be2c89b69c2b068fc378daa952ba7f163c4a11628f55a4df523b3ef9060200160405180910390a350600195945050505050565b600154600160a01b900460ff16156114c65760405162461bcd60e51b815260040161095b90613548565b336000908152600c602052604090205460ff166114f55760405162461bcd60e51b815260040161095b90613820565b3360008181526003602052604090205460ff16156115255760405162461bcd60e51b815260040161095b90613572565b33600090815260096020526040902054826115945760405162461bcd60e51b815260206004820152602960248201527f46696174546f6b656e3a206275726e20616d6f756e74206e6f7420677265617460448201526806572207468616e20360bc1b606482015260840161095b565b828110156115f35760405162461bcd60e51b815260206004820152602660248201527f46696174546f6b656e3a206275726e20616d6f756e7420657863656564732062604482015265616c616e636560d01b606482015260840161095b565b600b546116009084612423565b600b5561160d8184612423565b33600081815260096020526040908190209290925590517fcc16f5dbb4873280815c1ee09dbd06736cffcc184412cf7a71a0fdb75d397ca5906116539086815260200190565b60405180910390a260405183815260009033907fddf252ad1be2c89b69c2b068fc378daa952ba7f163c4a11628f55a4df523b3ef906020015b60405180910390a3505050565b600154600090600160a01b900460ff16156116c65760405162461bcd60e51b815260040161095b90613548565b6008546001600160a01b031633146116f05760405162461bcd60e51b815260040161095b90613638565b6001600160a01b0383166000818152600c60209081526040808320805460ff19166001179055600d82529182902085905590518481527f46980fca912ef9bcdbd36877427b6b90e860769f604e89c0e67720cece530d20910160405180910390a25060015b92915050565b6000546001600160a01b031633146117855760405162461bcd60e51b815260040161095b90613603565b6001600160a01b0381166117ec5760405162461bcd60e51b815260206004820152602860248201527f5061757361626c653a206e65772070617573657220697320746865207a65726f604482015267206164647265737360c01b606482015260840161095b565b600180546001600160a01b0319166001600160a01b0383169081179091556040517fb80482a293ca2e013eda8683c9bd7fc8347cfdaeea5ede58cba46df502c2a60490600090a250565b600154600160a01b900460ff16156118605760405162461bcd60e51b815260040161095b90613548565b61186d858585858561252b565b5050505050565b6001546001600160a01b0316331461189e5760405162461bcd60e51b815260040161095b906137de565b6001805460ff60a01b1916600160a01b1790556040517f6985a02210a168e66602d3235cb6db0e70f92b3ba4d376a33c0f3d9434bff62590600090a1565b600580546108ad9061350e565b3360008181526013602052604090205460ff16151560011461194d5760405162461bcd60e51b815260206004820152601c60248201527f796f7520617265206e6f7420696e207468652077686974656c69737400000000604482015260640161095b565b81600b600082825461195f9190613877565b90915550503360009081526009602052604081208054849290611983908490613877565b90915550505050565b600154600090600160a01b900460ff16156119b95760405162461bcd60e51b815260040161095b90613548565b3360008181526003602052604090205460ff16156119e95760405162461bcd60e51b815260040161095b90613572565b6001600160a01b038416600090815260036020526040902054849060ff1615611a245760405162461bcd60e51b815260040161095b90613572565b6109da33868661265b565b3360008181526013602052604081205490919060ff161515600114611a965760405162461bcd60e51b815260206004820152601c60248201527f796f7520617265206e6f7420696e207468652077686974656c69737400000000604482015260640161095b565b611aa1338585612240565b5060019392505050565b6000546001600160a01b03163314611ad55760405162461bcd60e51b815260040161095b90613603565b6001600160a01b038116611afb5760405162461bcd60e51b815260040161095b90613681565b600880546001600160a01b0319166001600160a01b0383169081179091556040517fdb66dfa9c6b8f5226fe9aac7e51897ae8ee94ac31dc70bb6c9900b2574b707e690600090a250565b6000546001600160a01b03163314611b6f5760405162461bcd60e51b815260040161095b90613603565b6001600160a01b038116611be05760405162461bcd60e51b815260206004820152603260248201527f426c61636b6c69737461626c653a206e657720626c61636b6c697374657220696044820152717320746865207a65726f206164647265737360701b606482015260840161095b565b600280546001600160a01b0319166001600160a01b0383169081179091556040517fc67398012c111ce95ecb7429b933096c977380ee6c421175a71a4a4c6c88c06e90600090a250565b600e546001600160a01b03163314611c905760405162461bcd60e51b8152602060048201526024808201527f526573637561626c653a2063616c6c6572206973206e6f74207468652072657360448201526331bab2b960e11b606482015260840161095b565b611ca46001600160a01b0384168383612694565b505050565b600154600160a01b900460ff1615611cd35760405162461bcd60e51b815260040161095b90613548565b6001600160a01b038716600090815260036020526040902054879060ff1615611d0e5760405162461bcd60e51b815260040161095b90613572565b6001600160a01b038716600090815260036020526040902054879060ff1615611d495760405162461bcd60e51b815260040161095b90613572565b611d58898989898989896126e6565b505050505050505050565b600854600160a01b900460ff168015611d7f575060125460ff16155b611d8857600080fd5b6004611d9582848361388a565b50611dee82828080601f016020809104026020016040519081016040528093929190818152602001838380828437600092019190915250506040805180820190915260018152601960f91b602082015291506128549050565b600f5550506012805460ff19166001179055565b600154600160a01b900460ff1615611e2c5760405162461bcd60e51b815260040161095b90613548565b6001600160a01b038916600090815260036020526040902054899060ff1615611e675760405162461bcd60e51b815260040161095b90613572565b6001600160a01b038916600090815260036020526040902054899060ff1615611ea25760405162461bcd60e51b815260040161095b90613572565b611eb38b8b8b8b8b8b8b8b8b6128c6565b5050505050505050505050565b600780546108ad9061350e565b6000546001600160a01b03163314611ef75760405162461bcd60e51b815260040161095b90613603565b6001600160a01b03166000908152601360205260409020805460ff19166001179055565b600154600160a01b900460ff1615611f455760405162461bcd60e51b815260040161095b90613548565b6001600160a01b038916600090815260036020526040902054899060ff1615611f805760405162461bcd60e51b815260040161095b90613572565b6001600160a01b038916600090815260036020526040902054899060ff1615611fbb5760405162461bcd60e51b815260040161095b90613572565b611eb38b8b8b8b8b8b8b8b8b6129b3565b6000546001600160a01b03163314611ff65760405162461bcd60e51b815260040161095b90613603565b6001600160a01b03811661205b5760405162461bcd60e51b815260206004820152602660248201527f4f776e61626c653a206e6577206f776e657220697320746865207a65726f206160448201526564647265737360d01b606482015260840161095b565b600054604080516001600160a01b03928316815291831660208301527f8be0079c531659141344cd1fd0a4f28419497f9722a3daafe3b4186f6b6457e0910160405180910390a16120ab8161246c565b50565b6002546001600160a01b031633146120d85760405162461bcd60e51b815260040161095b906135b7565b6001600160a01b038116600081815260036020526040808220805460ff19166001179055517fffa4e6181777692565cf28528fc88fd1516ea86b56da075235fa575af6a4b8559190a250565b6001600160a01b0383166121865760405162461bcd60e51b8152602060048201526024808201527f45524332303a20617070726f76652066726f6d20746865207a65726f206164646044820152637265737360e01b606482015260840161095b565b6001600160a01b0382166121e75760405162461bcd60e51b815260206004820152602260248201527f45524332303a20617070726f766520746f20746865207a65726f206164647265604482015261737360f01b606482015260840161095b565b6001600160a01b038381166000818152600a602090815260408083209487168084529482529182902085905590518481527f8c5be1e5ebec7d5bd14f71427d1e84f3dd0314c0f7b2291e5b200ac8c7c3b925910161168c565b6001600160a01b0383166122a45760405162461bcd60e51b815260206004820152602560248201527f45524332303a207472616e736665722066726f6d20746865207a65726f206164604482015264647265737360d81b606482015260840161095b565b6001600160a01b0382166123065760405162461bcd60e51b815260206004820152602360248201527f45524332303a207472616e7366657220746f20746865207a65726f206164647260448201526265737360e81b606482015260840161095b565b6001600160a01b03831660009081526009602052604090205481111561237d5760405162461bcd60e51b815260206004820152602660248201527f45524332303a207472616e7366657220616d6f756e7420657863656564732062604482015265616c616e636560d01b606482015260840161095b565b6001600160a01b0383166000908152600960205260409020546123a09082612423565b6001600160a01b0380851660009081526009602052604080822093909355908416815220546123cf90826124cc565b6001600160a01b0380841660008181526009602052604090819020939093559151908516907fddf252ad1be2c89b69c2b068fc378daa952ba7f163c4a11628f55a4df523b3ef9061168c9085815260200190565b600061246583836040518060400160405280601e81526020017f536166654d6174683a207375627472616374696f6e206f766572666c6f770000815250612a65565b9392505050565b600080546001600160a01b0319166001600160a01b0392909216919091179055565b6001600160a01b038084166000908152600a6020908152604080832093861683529290522054611ca490849084906124c7908590613877565b612124565b6000806124d98385613877565b9050838110156124655760405162461bcd60e51b815260206004820152601b60248201527f536166654d6174683a206164646974696f6e206f766572666c6f770000000000604482015260640161095b565b6125358585612a9f565b604080517f158b0a9edf7a828aad02f63cd515c68ef2f50ba807396f6d12842833a159742960208201526001600160a01b03871691810191909152606081018590526000906080016040516020818303038152906040529050856001600160a01b03166125a7600f5486868686612b2e565b6001600160a01b0316146125fd5760405162461bcd60e51b815260206004820152601e60248201527f46696174546f6b656e56323a20696e76616c6964207369676e61747572650000604482015260640161095b565b6001600160a01b0386166000818152601060209081526040808320898452909152808220805460ff19166001179055518792917f1cdd46ff242716cdaa72d159d339a485b3438398348d68f09d7c8c0a59353d8191a3505050505050565b6001600160a01b038084166000908152600a6020908152604080832093861683529290522054611ca490849084906124c790859061394a565b604080516001600160a01b038416602482015260448082018490528251808303909101815260649091019091526020810180516001600160e01b031663a9059cbb60e01b179052611ca4908490612b90565b428410156127365760405162461bcd60e51b815260206004820152601e60248201527f46696174546f6b656e56323a207065726d697420697320657870697265640000604482015260640161095b565b6001600160a01b038716600090815260116020526040812080547f6e71edae12b1b97f4d1f60370fef10105fa2faae0126114a169c64845d6126c9918a918a918a9190866127838361395d565b909155506040805160208101969096526001600160a01b0394851690860152929091166060840152608083015260a082015260c0810186905260e0016040516020818303038152906040529050876001600160a01b03166127e9600f5486868686612b2e565b6001600160a01b03161461283f5760405162461bcd60e51b815260206004820152601a60248201527f454950323631323a20696e76616c6964207369676e6174757265000000000000604482015260640161095b565b61284a888888612124565b5050505050505050565b8151602092830120815191830191909120604080517f8b73c3c69bb8fe3d512ecc4cf759cc79239f7b179b0ffacaa9a75d522b39400f818601528082019390935260608301919091524660808301523060a0808401919091528151808403909101815260c09092019052805191012090565b6128d289858888612c62565b604051600090612912907f7c7c6cdb67a18743f49ec6fa9b35f50d52ed05cbed4cc592e13b44501c1a2267908c908c908c908c908c908c90602001613976565b6040516020818303038152906040529050896001600160a01b031661293c600f5486868686612b2e565b6001600160a01b0316146129925760405162461bcd60e51b815260206004820152601e60248201527f46696174546f6b656e56323a20696e76616c6964207369676e61747572650000604482015260640161095b565b61299c8a86612d32565b6129a78a8a8a612240565b50505050505050505050565b6001600160a01b0388163314612a195760405162461bcd60e51b815260206004820152602560248201527f46696174546f6b656e56323a2063616c6c6572206d7573742062652074686520604482015264706179656560d81b606482015260840161095b565b612a2589858888612c62565b604051600090612912907fd099cc98ef71107a616c4f0f941f04c322d8e254fe26b3c6668db87aae413de8908c908c908c908c908c908c90602001613976565b60008184841115612a895760405162461bcd60e51b815260040161095b919061309d565b506000612a96848661394a565b95945050505050565b6001600160a01b038216600090815260106020908152604080832084845290915290205460ff1615612b2a5760405162461bcd60e51b815260206004820152602e60248201527f46696174546f6b656e56323a20617574686f72697a6174696f6e20697320757360448201526d1959081bdc8818d85b98d95b195960921b606482015260840161095b565b5050565b600080868380519060200120604051602001612b6192919061190160f01b81526002810192909252602282015260420190565b604051602081830303815290604052805190602001209050612b8581878787612d8c565b979650505050505050565b6000612be5826040518060400160405280602081526020017f5361666545524332303a206c6f772d6c6576656c2063616c6c206661696c6564815250856001600160a01b0316612f439092919063ffffffff16565b805190915015611ca45780806020019051810190612c0391906139b2565b611ca45760405162461bcd60e51b815260206004820152602a60248201527f5361666545524332303a204552433230206f7065726174696f6e20646964206e6044820152691bdd081cdd58d8d9595960b21b606482015260840161095b565b814211612cc55760405162461bcd60e51b815260206004820152602b60248201527f46696174546f6b656e56323a20617574686f72697a6174696f6e206973206e6f60448201526a1d081e595d081d985b1a5960aa1b606482015260840161095b565b804210612d225760405162461bcd60e51b815260206004820152602560248201527f46696174546f6b656e56323a20617574686f72697a6174696f6e2069732065786044820152641c1a5c995960da1b606482015260840161095b565b612d2c8484612a9f565b50505050565b6001600160a01b0382166000818152601060209081526040808320858452909152808220805460ff19166001179055518392917f98de503528ee59b575ef0c0a2576a82497bfc029a5685b209e9ec333479b10a591a35050565b60007f7fffffffffffffffffffffffffffffff5d576e7357a4501ddfe92f46681b20a0821115612e0d5760405162461bcd60e51b815260206004820152602660248201527f45435265636f7665723a20696e76616c6964207369676e6174757265202773276044820152652076616c756560d01b606482015260840161095b565b8360ff16601b14158015612e2557508360ff16601c14155b15612e815760405162461bcd60e51b815260206004820152602660248201527f45435265636f7665723a20696e76616c6964207369676e6174757265202776276044820152652076616c756560d01b606482015260840161095b565b6040805160008082526020820180845288905260ff871692820192909252606081018590526080810184905260019060a0016020604051602081039080840390855afa158015612ed5573d6000803e3d6000fd5b5050604051601f1901519150506001600160a01b038116612f385760405162461bcd60e51b815260206004820152601c60248201527f45435265636f7665723a20696e76616c6964207369676e617475726500000000604482015260640161095b565b90505b949350505050565b6060612f3b84846000856060612f5885613040565b612fa45760405162461bcd60e51b815260206004820152601d60248201527f416464726573733a2063616c6c20746f206e6f6e2d636f6e7472616374000000604482015260640161095b565b600080866001600160a01b03168587604051612fc091906139d4565b60006040518083038185875af1925050503d8060008114612ffd576040519150601f19603f3d011682016040523d82523d6000602084013e613002565b606091505b50915091508115613016579150612f3b9050565b8051156130265780518082602001fd5b8360405162461bcd60e51b815260040161095b919061309d565b6000813f7fc5d2460186f7233c927e7db2dcc703c0e500b653ca82273b7bfad8045d85a470818114801590612f3b575050151592915050565b60005b8381101561309457818101518382015260200161307c565b50506000910152565b60208152600082518060208401526130bc816040850160208701613079565b601f01601f19169190910160400192915050565b6001600160a01b03811681146120ab57600080fd5b8035610e33816130d0565b6000806040838503121561310357600080fd5b823561310e816130d0565b946020939093013593505050565b60006020828403121561312e57600080fd5b8135612465816130d0565b60008060006060848603121561314e57600080fd5b8335613159816130d0565b92506020840135613169816130d0565b929592945050506040919091013590565b634e487b7160e01b600052604160045260246000fd5b600082601f8301126131a157600080fd5b813567ffffffffffffffff808211156131bc576131bc61317a565b604051601f8301601f19908116603f011681019082821181831017156131e4576131e461317a565b816040528381528660208588010111156131fd57600080fd5b836020870160208301376000602085830101528094505050505092915050565b803560ff81168114610e3357600080fd5b600080600080600080600080610100898b03121561324b57600080fd5b883567ffffffffffffffff8082111561326357600080fd5b61326f8c838d01613190565b995060208b013591508082111561328557600080fd5b6132918c838d01613190565b985060408b01359150808211156132a757600080fd5b506132b48b828c01613190565b9650506132c360608a0161321d565b94506132d160808a016130e5565b93506132df60a08a016130e5565b92506132ed60c08a016130e5565b91506132fb60e08a016130e5565b90509295985092959890939650565b60006020828403121561331c57600080fd5b5035919050565b600080600080600060a0868803121561333b57600080fd5b8535613346816130d0565b94506020860135935061335b6040870161321d565b94979396509394606081013594506080013592915050565b600080600080600080600060e0888a03121561338e57600080fd5b8735613399816130d0565b965060208801356133a9816130d0565b955060408801359450606088013593506133c56080890161321d565b925060a0880135915060c0880135905092959891949750929550565b600080602083850312156133f457600080fd5b823567ffffffffffffffff8082111561340c57600080fd5b818501915085601f83011261342057600080fd5b81358181111561342f57600080fd5b86602082850101111561344157600080fd5b60209290920196919550909350505050565b6000806040838503121561346657600080fd5b8235613471816130d0565b91506020830135613481816130d0565b809150509250929050565b60008060008060008060008060006101208a8c0312156134ab57600080fd5b89356134b6816130d0565b985060208a01356134c6816130d0565b975060408a0135965060608a0135955060808a0135945060a08a013593506134f060c08b0161321d565b925060e08a013591506101008a013590509295985092959850929598565b600181811c9082168061352257607f821691505b60208210810361354257634e487b7160e01b600052602260045260246000fd5b50919050565b60208082526010908201526f14185d5cd8589b194e881c185d5cd95960821b604082015260600190565b60208082526025908201527f426c61636b6c69737461626c653a206163636f756e7420697320626c61636b6c6040820152641a5cdd195960da1b606082015260800190565b6020808252602c908201527f426c61636b6c69737461626c653a2063616c6c6572206973206e6f742074686560408201526b10313630b1b5b634b9ba32b960a11b606082015260800190565b6020808252818101527f4f776e61626c653a2063616c6c6572206973206e6f7420746865206f776e6572604082015260600190565b60208082526029908201527f46696174546f6b656e3a2063616c6c6572206973206e6f7420746865206d61736040820152683a32b926b4b73a32b960b91b606082015260800190565b6020808252602f908201527f46696174546f6b656e3a206e6577206d61737465724d696e746572206973207460408201526e6865207a65726f206164647265737360881b606082015260800190565b601f821115611ca457600081815260208120601f850160051c810160208610156136f75750805b601f850160051c820191505b8181101561371657828155600101613703565b505050505050565b815167ffffffffffffffff8111156137385761373861317a565b61374c81613746845461350e565b846136d0565b602080601f83116001811461378157600084156137695750858301515b600019600386901b1c1916600185901b178555613716565b600085815260208120601f198616915b828110156137b057888601518255948401946001909101908401613791565b50858210156137ce5787850151600019600388901b60f8161c191681555b5050505050600190811b01905550565b60208082526022908201527f5061757361626c653a2063616c6c6572206973206e6f7420746865207061757360408201526132b960f11b606082015260800190565b60208082526021908201527f46696174546f6b656e3a2063616c6c6572206973206e6f742061206d696e74656040820152603960f91b606082015260800190565b634e487b7160e01b600052601160045260246000fd5b8082018082111561175557611755613861565b67ffffffffffffffff8311156138a2576138a261317a565b6138b6836138b0835461350e565b836136d0565b6000601f8411600181146138ea57600085156138d25750838201355b600019600387901b1c1916600186901b17835561186d565b600083815260209020601f19861690835b8281101561391b57868501358255602094850194600190920191016138fb565b50868210156139385760001960f88860031b161c19848701351681555b505060018560011b0183555050505050565b8181038181111561175557611755613861565b60006001820161396f5761396f613861565b5060010190565b9687526001600160a01b0395861660208801529390941660408601526060850191909152608084015260a083019190915260c082015260e00190565b6000602082840312156139c457600080fd5b8151801515811461246557600080fd5b600082516139e6818460208701613079565b919091019291505056fea26469706673582212202705eb86f50439c4c7a126a29b8728a983b26cf16918f5bf6a9bdad267afe5c564736f6c63430008150033",
    "linkReferences": {}
  },
  "methodIdentifiers": {
    "CANCEL_AUTHORIZATION_TYPEHASH()": "d9169487",
    "DOMAIN_SEPARATOR()": "3644e515",
    "PERMIT_TYPEHASH()": "30adf81f",
    "RECEIVE_WITH_AUTHORIZATION_TYPEHASH()": "7f2eecc3",
    "TRANSFER_WITH_AUTHORIZATION_TYPEHASH()": "a0cc6a68",
    "addWhiteList(address)": "e7cd4a04",
    "allowance(address,address)": "dd62ed3e",
    "approve(address,uint256)": "095ea7b3",
    "authorizationState(address,bytes32)": "e94a0102",
    "balanceOf(address)": "70a08231",
    "blacklist(address)": "f9f92be4",
    "blacklister()": "bd102430",
    "burn(uint256)": "42966c68",
    "cancelAuthorization(address,bytes32,uint8,bytes32,bytes32)": "5a049a70",
    "configureMinter(address,uint256)": "4e44d956",
    "currency()": "e5a6b10f",
    "decimals()": "313ce567",
    "decreaseAllowance(address,uint256)": "a457c2d7",
    "increaseAllowance(address,uint256)": "39509351",
    "initialize(string,string,string,uint8,address,address,address,address)": "3357162b",
    "initializeV2(string)": "d608ea64",
    "initializeV2_1(address)": "2fc81e09",
    "initializedV2()": "18c20ecb",
    "initializedv2()": "31d8f3a7",
    "isBlacklisted(address)": "fe575a87",
    "isMinter(address)": "aa271e1a",
    "isWhiteListed(address)": "6f9170f6",
    "masterMinter()": "35d99f35",
    "mint(address,uint256)": "40c10f19",
    "mint(uint256)": "a0712d68",
    "minterAllowance(address)": "8a6db9c3",
    "name()": "06fdde03",
    "nonces(address)": "7ecebe00",
    "owner()": "8da5cb5b",
    "pause()": "8456cb59",
    "paused()": "5c975abb",
    "pauser()": "9fd0506d",
    "permit(address,address,uint256,uint256,uint8,bytes32,bytes32)": "d505accf",
    "receiveWithAuthorization(address,address,uint256,uint256,uint256,bytes32,uint8,bytes32,bytes32)": "ef55bec6",
    "removeMinter(address)": "3092afd5",
    "rescueERC20(address,address,uint256)": "b2118a8d",
    "rescuer()": "38a63183",
    "symbol()": "95d89b41",
    "totalSupply()": "18160ddd",
    "transfer(address,uint256)": "a9059cbb",
    "transferFrom(address,address,uint256)": "23b872dd",
    "transferOwnership(address)": "f2fde38b",
    "transferWithAuthorization(address,address,uint256,uint256,uint256,bytes32,uint8,bytes32,bytes32)": "e3ee160e",
    "unBlacklist(address)": "1a895266",
    "unpause()": "3f4ba83a",
    "updateBlacklister(address)": "ad38bf22",
    "updateMasterMinter(address)": "aa20e1e4",
    "updatePauser(address)": "554bab3c",
    "updateRescuer(address)": "2ab60045",
    "version()": "54fd4d50"
  },
  "id": 19
}